{
  "contractName": "SupplyChain",
  "abi": [
    {
      "inputs": [],
      "stateMutability": "nonpayable",
      "type": "constructor"
    },
    {
      "anonymous": false,
      "inputs": [
        {
          "indexed": true,
          "internalType": "uint256",
          "name": "productId",
          "type": "uint256"
        },
        {
          "indexed": false,
          "internalType": "enum SupplyChain.STAGE",
          "name": "stage",
          "type": "uint8"
        }
      ],
      "name": "StageUpdated",
      "type": "event"
    },
    {
      "inputs": [
        {
          "internalType": "uint256",
          "name": "",
          "type": "uint256"
        }
      ],
      "name": "DIS",
      "outputs": [
        {
          "internalType": "address",
          "name": "addr",
          "type": "address"
        },
        {
          "internalType": "uint256",
          "name": "id",
          "type": "uint256"
        },
        {
          "internalType": "string",
          "name": "name",
          "type": "string"
        },
        {
          "internalType": "string",
          "name": "place",
          "type": "string"
        }
      ],
      "stateMutability": "view",
      "type": "function",
      "constant": true
    },
    {
      "inputs": [
        {
          "internalType": "uint256",
          "name": "",
          "type": "uint256"
        }
      ],
      "name": "MAN",
      "outputs": [
        {
          "internalType": "address",
          "name": "addr",
          "type": "address"
        },
        {
          "internalType": "uint256",
          "name": "id",
          "type": "uint256"
        },
        {
          "internalType": "string",
          "name": "name",
          "type": "string"
        },
        {
          "internalType": "string",
          "name": "place",
          "type": "string"
        }
      ],
      "stateMutability": "view",
      "type": "function",
      "constant": true
    },
    {
      "inputs": [
        {
          "internalType": "uint256",
          "name": "",
          "type": "uint256"
        }
      ],
      "name": "MedicineStock",
      "outputs": [
        {
          "internalType": "uint256",
          "name": "id",
          "type": "uint256"
        },
        {
          "internalType": "string",
          "name": "name",
          "type": "string"
        },
        {
          "internalType": "string",
          "name": "destinationCompanyName",
          "type": "string"
        },
        {
          "internalType": "uint256",
          "name": "price",
          "type": "uint256"
        },
        {
          "internalType": "uint256",
          "name": "quantity",
          "type": "uint256"
        },
        {
          "internalType": "uint256",
          "name": "expirationDate",
          "type": "uint256"
        },
        {
          "internalType": "uint256",
          "name": "timestamp",
          "type": "uint256"
        },
        {
          "internalType": "uint256",
          "name": "MANid",
          "type": "uint256"
        },
        {
          "internalType": "uint256",
          "name": "SHIPid",
          "type": "uint256"
        },
        {
          "internalType": "uint256",
          "name": "DISid",
          "type": "uint256"
        },
        {
          "internalType": "uint256",
          "name": "WARid",
          "type": "uint256"
        },
        {
          "internalType": "enum SupplyChain.STAGE",
          "name": "stage",
          "type": "uint8"
        }
      ],
      "stateMutability": "view",
      "type": "function",
      "constant": true
    },
    {
      "inputs": [],
      "name": "Owner",
      "outputs": [
        {
          "internalType": "address",
          "name": "",
          "type": "address"
        }
      ],
      "stateMutability": "view",
      "type": "function",
      "constant": true
    },
    {
      "inputs": [
        {
          "internalType": "uint256",
          "name": "",
          "type": "uint256"
        }
      ],
      "name": "SHIP",
      "outputs": [
        {
          "internalType": "address",
          "name": "addr",
          "type": "address"
        },
        {
          "internalType": "uint256",
          "name": "id",
          "type": "uint256"
        },
        {
          "internalType": "string",
          "name": "name",
          "type": "string"
        },
        {
          "internalType": "string",
          "name": "place",
          "type": "string"
        }
      ],
      "stateMutability": "view",
      "type": "function",
      "constant": true
    },
    {
      "inputs": [
        {
          "internalType": "uint256",
          "name": "",
          "type": "uint256"
        }
      ],
      "name": "WAR",
      "outputs": [
        {
          "internalType": "address",
          "name": "addr",
          "type": "address"
        },
        {
          "internalType": "uint256",
          "name": "id",
          "type": "uint256"
        },
        {
          "internalType": "string",
          "name": "name",
          "type": "string"
        },
        {
          "internalType": "string",
          "name": "place",
          "type": "string"
        }
      ],
      "stateMutability": "view",
      "type": "function",
      "constant": true
    },
    {
      "inputs": [],
      "name": "disCtr",
      "outputs": [
        {
          "internalType": "uint256",
          "name": "",
          "type": "uint256"
        }
      ],
      "stateMutability": "view",
      "type": "function",
      "constant": true
    },
    {
      "inputs": [],
      "name": "manCtr",
      "outputs": [
        {
          "internalType": "uint256",
          "name": "",
          "type": "uint256"
        }
      ],
      "stateMutability": "view",
      "type": "function",
      "constant": true
    },
    {
      "inputs": [],
      "name": "medicineCtr",
      "outputs": [
        {
          "internalType": "uint256",
          "name": "",
          "type": "uint256"
        }
      ],
      "stateMutability": "view",
      "type": "function",
      "constant": true
    },
    {
      "inputs": [],
      "name": "shipCtr",
      "outputs": [
        {
          "internalType": "uint256",
          "name": "",
          "type": "uint256"
        }
      ],
      "stateMutability": "view",
      "type": "function",
      "constant": true
    },
    {
      "inputs": [],
      "name": "warCtr",
      "outputs": [
        {
          "internalType": "uint256",
          "name": "",
          "type": "uint256"
        }
      ],
      "stateMutability": "view",
      "type": "function",
      "constant": true
    },
    {
      "inputs": [
        {
          "internalType": "uint256",
          "name": "_medicineID",
          "type": "uint256"
        }
      ],
      "name": "showStage",
      "outputs": [
        {
          "internalType": "string",
          "name": "",
          "type": "string"
        }
      ],
      "stateMutability": "view",
      "type": "function",
      "constant": true
    },
    {
      "inputs": [
        {
          "internalType": "uint256",
          "name": "_productId",
          "type": "uint256"
        }
      ],
      "name": "startManufacturing",
      "outputs": [],
      "stateMutability": "payable",
      "type": "function",
      "payable": true
    },
    {
      "inputs": [
        {
          "internalType": "uint256",
          "name": "_productId",
          "type": "uint256"
        }
      ],
      "name": "startShipping",
      "outputs": [],
      "stateMutability": "payable",
      "type": "function",
      "payable": true
    },
    {
      "inputs": [
        {
          "internalType": "uint256",
          "name": "_productId",
          "type": "uint256"
        }
      ],
      "name": "startDistribution",
      "outputs": [],
      "stateMutability": "payable",
      "type": "function",
      "payable": true
    },
    {
      "inputs": [
        {
          "internalType": "uint256",
          "name": "_productId",
          "type": "uint256"
        }
      ],
      "name": "storeInWarehouse",
      "outputs": [],
      "stateMutability": "payable",
      "type": "function",
      "payable": true
    },
    {
      "inputs": [
        {
          "internalType": "uint256",
          "name": "_medicineID",
          "type": "uint256"
        }
      ],
      "name": "sell",
      "outputs": [],
      "stateMutability": "payable",
      "type": "function",
      "payable": true
    },
    {
      "inputs": [
        {
          "internalType": "string",
          "name": "_name",
          "type": "string"
        },
        {
          "internalType": "string",
          "name": "_destinationCompanyName",
          "type": "string"
        },
        {
          "internalType": "uint256",
          "name": "_price",
          "type": "uint256"
        },
        {
          "internalType": "uint256",
          "name": "_quantity",
          "type": "uint256"
        },
        {
          "internalType": "uint256",
          "name": "_expirationDate",
          "type": "uint256"
        }
      ],
      "name": "addMedicine",
      "outputs": [],
      "stateMutability": "nonpayable",
      "type": "function"
    },
    {
      "inputs": [
        {
          "internalType": "address",
          "name": "_addr",
          "type": "address"
        },
        {
          "internalType": "string",
          "name": "_name",
          "type": "string"
        },
        {
          "internalType": "string",
          "name": "_place",
          "type": "string"
        }
      ],
      "name": "addManufacturer",
      "outputs": [],
      "stateMutability": "nonpayable",
      "type": "function"
    },
    {
      "inputs": [
        {
          "internalType": "address",
          "name": "_addr",
          "type": "address"
        },
        {
          "internalType": "string",
          "name": "_name",
          "type": "string"
        },
        {
          "internalType": "string",
          "name": "_place",
          "type": "string"
        }
      ],
      "name": "addShippingAgent",
      "outputs": [],
      "stateMutability": "nonpayable",
      "type": "function"
    },
    {
      "inputs": [
        {
          "internalType": "address",
          "name": "_addr",
          "type": "address"
        },
        {
          "internalType": "string",
          "name": "_name",
          "type": "string"
        },
        {
          "internalType": "string",
          "name": "_place",
          "type": "string"
        }
      ],
      "name": "addDistributor",
      "outputs": [],
      "stateMutability": "nonpayable",
      "type": "function"
    },
    {
      "inputs": [
        {
          "internalType": "address",
          "name": "_addr",
          "type": "address"
        },
        {
          "internalType": "string",
          "name": "_name",
          "type": "string"
        },
        {
          "internalType": "string",
          "name": "_place",
          "type": "string"
        }
      ],
      "name": "addWarehouseAgent",
      "outputs": [],
      "stateMutability": "nonpayable",
      "type": "function"
    }
  ],
  "bytecode": "0x60806040526000600155600060025560006003556000600455600060055534801561002957600080fd5b50336000806101000a81548173ffffffffffffffffffffffffffffffffffffffff021916908373ffffffffffffffffffffffffffffffffffffffff160217905550612ea8806100796000396000f3fe6080604052600436106101355760003560e01c80638afc54d9116100ab578063cc4030691161006f578063cc403069146103dd578063de1055261461041d578063e101a2e01461045d578063e4849b321461049a578063e7979689146104b6578063eb1a06b5146104d257610135565b80638afc54d914610324578063a95f29d91461034f578063aa891f221461037a578063b4a99a4e14610396578063b79a104c146103c157610135565b8063476a4558116100fd578063476a4558146102225780634b4c9c661461024b5780634ce2dd421461028b5780635f9f07f9146102b65780636a992c9f146102df5780637d0ac2c41461030857610135565b80632923cb6f1461013a5780632a4af440146101635780632b0187ac1461018c5780632bdb2e6b146101cc578063438e9c4d146101f7575b600080fd5b34801561014657600080fd5b50610161600480360381019061015c9190612505565b61051a565b005b34801561016f57600080fd5b5061018a60048036038101906101859190612505565b6106a1565b005b34801561019857600080fd5b506101b360048036038101906101ae919061262b565b610828565b6040516101c394939291906128bb565b60405180910390f35b3480156101d857600080fd5b506101e1610988565b6040516101ee9190612a2b565b60405180910390f35b34801561020357600080fd5b5061020c61098e565b6040516102199190612a2b565b60405180910390f35b34801561022e57600080fd5b5061024960048036038101906102449190612505565b610994565b005b34801561025757600080fd5b50610272600480360381019061026d919061262b565b610b1b565b60405161028294939291906128bb565b60405180910390f35b34801561029757600080fd5b506102a0610c7b565b6040516102ad9190612a2b565b60405180910390f35b3480156102c257600080fd5b506102dd60048036038101906102d89190612584565b610c81565b005b3480156102eb57600080fd5b5061030660048036038101906103019190612505565b610ec5565b005b610322600480360381019061031d919061262b565b61104c565b005b34801561033057600080fd5b5061033961114e565b6040516103469190612a2b565b60405180910390f35b34801561035b57600080fd5b50610364611154565b6040516103719190612a2b565b60405180910390f35b610394600480360381019061038f919061262b565b61115a565b005b3480156103a257600080fd5b506103ab61125c565b6040516103b891906128a0565b60405180910390f35b6103db60048036038101906103d6919061262b565b611280565b005b3480156103e957600080fd5b5061040460048036038101906103ff919061262b565b611382565b60405161041494939291906128bb565b60405180910390f35b34801561042957600080fd5b50610444600480360381019061043f919061262b565b6114e2565b60405161045494939291906128bb565b60405180910390f35b34801561046957600080fd5b50610484600480360381019061047f919061262b565b611642565b6040516104919190612929565b60405180910390f35b6104b460048036038101906104af919061262b565b611bea565b005b6104d060048036038101906104cb919061262b565b612063565b005b3480156104de57600080fd5b506104f960048036038101906104f4919061262b565b612165565b6040516105119c9b9a99989796959493929190612a46565b60405180910390f35b60008054906101000a900473ffffffffffffffffffffffffffffffffffffffff1673ffffffffffffffffffffffffffffffffffffffff163373ffffffffffffffffffffffffffffffffffffffff16146105a8576040517f08c379a000000000000000000000000000000000000000000000000000000000815260040161059f906129cb565b60405180910390fd5b600360008154809291906105bb90612ceb565b919050555060405180608001604052808473ffffffffffffffffffffffffffffffffffffffff16815260200160035481526020018381526020018281525060086000600354815260200190815260200160002060008201518160000160006101000a81548173ffffffffffffffffffffffffffffffffffffffff021916908373ffffffffffffffffffffffffffffffffffffffff16021790555060208201518160010155604082015181600201908051906020019061067b9291906123d0565b5060608201518160030190805190602001906106989291906123d0565b50905050505050565b60008054906101000a900473ffffffffffffffffffffffffffffffffffffffff1673ffffffffffffffffffffffffffffffffffffffff163373ffffffffffffffffffffffffffffffffffffffff161461072f576040517f08c379a0000000000000000000000000000000000000000000000000000000008152600401610726906129cb565b60405180910390fd5b6004600081548092919061074290612ceb565b919050555060405180608001604052808473ffffffffffffffffffffffffffffffffffffffff16815260200160045481526020018381526020018281525060096000600454815260200190815260200160002060008201518160000160006101000a81548173ffffffffffffffffffffffffffffffffffffffff021916908373ffffffffffffffffffffffffffffffffffffffff1602179055506020820151816001015560408201518160020190805190602001906108029291906123d0565b50606082015181600301908051906020019061081f9291906123d0565b50905050505050565b60096020528060005260406000206000915090508060000160009054906101000a900473ffffffffffffffffffffffffffffffffffffffff169080600101549080600201805461087790612cb9565b80601f01602080910402602001604051908101604052809291908181526020018280546108a390612cb9565b80156108f05780601f106108c5576101008083540402835291602001916108f0565b820191906000526020600020905b8154815290600101906020018083116108d357829003601f168201915b50505050509080600301805461090590612cb9565b80601f016020809104026020016040519081016040528092919081815260200182805461093190612cb9565b801561097e5780601f106109535761010080835404028352916020019161097e565b820191906000526020600020905b81548152906001019060200180831161096157829003601f168201915b5050505050905084565b60045481565b60025481565b60008054906101000a900473ffffffffffffffffffffffffffffffffffffffff1673ffffffffffffffffffffffffffffffffffffffff163373ffffffffffffffffffffffffffffffffffffffff1614610a22576040517f08c379a0000000000000000000000000000000000000000000000000000000008152600401610a19906129cb565b60405180910390fd5b60056000815480929190610a3590612ceb565b919050555060405180608001604052808473ffffffffffffffffffffffffffffffffffffffff168152602001600554815260200183815260200182815250600a6000600554815260200190815260200160002060008201518160000160006101000a81548173ffffffffffffffffffffffffffffffffffffffff021916908373ffffffffffffffffffffffffffffffffffffffff160217905550602082015181600101556040820151816002019080519060200190610af59291906123d0565b506060820151816003019080519060200190610b129291906123d0565b50905050505050565b60086020528060005260406000206000915090508060000160009054906101000a900473ffffffffffffffffffffffffffffffffffffffff1690806001015490806002018054610b6a90612cb9565b80601f0160208091040260200160405190810160405280929190818152602001828054610b9690612cb9565b8015610be35780601f10610bb857610100808354040283529160200191610be3565b820191906000526020600020905b815481529060010190602001808311610bc657829003601f168201915b505050505090806003018054610bf890612cb9565b80601f0160208091040260200160405190810160405280929190818152602001828054610c2490612cb9565b8015610c715780601f10610c4657610100808354040283529160200191610c71565b820191906000526020600020905b815481529060010190602001808311610c5457829003601f168201915b5050505050905084565b60035481565b60008054906101000a900473ffffffffffffffffffffffffffffffffffffffff1673ffffffffffffffffffffffffffffffffffffffff163373ffffffffffffffffffffffffffffffffffffffff1614610d0f576040517f08c379a0000000000000000000000000000000000000000000000000000000008152600401610d06906129cb565b60405180910390fd5b60016000815480929190610d2290612ceb565b919050555060405180610180016040528060015481526020018681526020018581526020018481526020018381526020018281526020014281526020016000815260200160008152602001600081526020016000815260200160006005811115610db5577f4e487b7100000000000000000000000000000000000000000000000000000000600052602160045260246000fd5b815250600660006001548152602001908152602001600020600082015181600001556020820151816001019080519060200190610df39291906123d0565b506040820151816002019080519060200190610e109291906123d0565b50606082015181600301556080820151816004015560a0820151816005015560c0820151816006015560e082015181600701556101008201518160080155610120820151816009015561014082015181600a015561016082015181600b0160006101000a81548160ff02191690836005811115610eb6577f4e487b7100000000000000000000000000000000000000000000000000000000600052602160045260246000fd5b02179055509050505050505050565b60008054906101000a900473ffffffffffffffffffffffffffffffffffffffff1673ffffffffffffffffffffffffffffffffffffffff163373ffffffffffffffffffffffffffffffffffffffff1614610f53576040517f08c379a0000000000000000000000000000000000000000000000000000000008152600401610f4a906129cb565b60405180910390fd5b60026000815480929190610f6690612ceb565b919050555060405180608001604052808473ffffffffffffffffffffffffffffffffffffffff16815260200160025481526020018381526020018281525060076000600254815260200190815260200160002060008201518160000160006101000a81548173ffffffffffffffffffffffffffffffffffffffff021916908373ffffffffffffffffffffffffffffffffffffffff1602179055506020820151816001015560408201518160020190805190602001906110269291906123d0565b5060608201518160030190805190602001906110439291906123d0565b50905050505050565b60006006600083815260200190815260200160002090506000816004015482600301546110799190612bbc565b90508034146110bd576040517f08c379a00000000000000000000000000000000000000000000000000000000081526004016110b49061296b565b60405180910390fd5b600482600b0160006101000a81548160ff0219169083600581111561110b577f4e487b7100000000000000000000000000000000000000000000000000000000600052602160045260246000fd5b0217905550827fe07678ebda9ff268c2c8531bb0ebfc488d9fa7067d919572337a14a72c3aa0b76004604051611141919061290e565b60405180910390a2505050565b60055481565b60015481565b60006006600083815260200190815260200160002090506000816004015482600301546111879190612bbc565b90508034146111cb576040517f08c379a00000000000000000000000000000000000000000000000000000000081526004016111c29061296b565b60405180910390fd5b600282600b0160006101000a81548160ff02191690836005811115611219577f4e487b7100000000000000000000000000000000000000000000000000000000600052602160045260246000fd5b0217905550827fe07678ebda9ff268c2c8531bb0ebfc488d9fa7067d919572337a14a72c3aa0b7600260405161124f919061290e565b60405180910390a2505050565b60008054906101000a900473ffffffffffffffffffffffffffffffffffffffff1681565b60006006600083815260200190815260200160002090506000816004015482600301546112ad9190612bbc565b90508034146112f1576040517f08c379a00000000000000000000000000000000000000000000000000000000081526004016112e89061296b565b60405180910390fd5b600182600b0160006101000a81548160ff0219169083600581111561133f577f4e487b7100000000000000000000000000000000000000000000000000000000600052602160045260246000fd5b0217905550827fe07678ebda9ff268c2c8531bb0ebfc488d9fa7067d919572337a14a72c3aa0b76001604051611375919061290e565b60405180910390a2505050565b60076020528060005260406000206000915090508060000160009054906101000a900473ffffffffffffffffffffffffffffffffffffffff16908060010154908060020180546113d190612cb9565b80601f01602080910402602001604051908101604052809291908181526020018280546113fd90612cb9565b801561144a5780601f1061141f5761010080835404028352916020019161144a565b820191906000526020600020905b81548152906001019060200180831161142d57829003601f168201915b50505050509080600301805461145f90612cb9565b80601f016020809104026020016040519081016040528092919081815260200182805461148b90612cb9565b80156114d85780601f106114ad576101008083540402835291602001916114d8565b820191906000526020600020905b8154815290600101906020018083116114bb57829003601f168201915b5050505050905084565b600a6020528060005260406000206000915090508060000160009054906101000a900473ffffffffffffffffffffffffffffffffffffffff169080600101549080600201805461153190612cb9565b80601f016020809104026020016040519081016040528092919081815260200182805461155d90612cb9565b80156115aa5780601f1061157f576101008083540402835291602001916115aa565b820191906000526020600020905b81548152906001019060200180831161158d57829003601f168201915b5050505050908060030180546115bf90612cb9565b80601f01602080910402602001604051908101604052809291908181526020018280546115eb90612cb9565b80156116385780601f1061160d57610100808354040283529160200191611638565b820191906000526020600020905b81548152906001019060200180831161161b57829003601f168201915b5050505050905084565b606060008211801561165657506001548211155b611695576040517f08c379a000000000000000000000000000000000000000000000000000000000815260040161168c9061298b565b60405180910390fd5b600060058111156116cf577f4e487b7100000000000000000000000000000000000000000000000000000000600052602160045260246000fd5b60066000848152602001908152602001600020600b0160009054906101000a900460ff16600581111561172b577f4e487b7100000000000000000000000000000000000000000000000000000000600052602160045260246000fd5b141561176e576040518060400160405280600f81526020017f50726f64756374204f72646572656400000000000000000000000000000000008152509050611be5565b600160058111156117a8577f4e487b7100000000000000000000000000000000000000000000000000000000600052602160045260246000fd5b60066000848152602001908152602001600020600b0160009054906101000a900460ff166005811115611804577f4e487b7100000000000000000000000000000000000000000000000000000000600052602160045260246000fd5b1415611847576040518060400160405280601381526020017f4d616e75666163747572696e67205374616765000000000000000000000000008152509050611be5565b60026005811115611881577f4e487b7100000000000000000000000000000000000000000000000000000000600052602160045260246000fd5b60066000848152602001908152602001600020600b0160009054906101000a900460ff1660058111156118dd577f4e487b7100000000000000000000000000000000000000000000000000000000600052602160045260246000fd5b1415611920576040518060400160405280600e81526020017f5368697070696e672053746167650000000000000000000000000000000000008152509050611be5565b6003600581111561195a577f4e487b7100000000000000000000000000000000000000000000000000000000600052602160045260246000fd5b60066000848152602001908152602001600020600b0160009054906101000a900460ff1660058111156119b6577f4e487b7100000000000000000000000000000000000000000000000000000000600052602160045260246000fd5b14156119f9576040518060400160405280601281526020017f446973747269627574696f6e20537461676500000000000000000000000000008152509050611be5565b60046005811115611a33577f4e487b7100000000000000000000000000000000000000000000000000000000600052602160045260246000fd5b60066000848152602001908152602001600020600b0160009054906101000a900460ff166005811115611a8f577f4e487b7100000000000000000000000000000000000000000000000000000000600052602160045260246000fd5b1415611ad2576040518060400160405280600f81526020017f57617265686f75736520537461676500000000000000000000000000000000008152509050611be5565b600580811115611b0b577f4e487b7100000000000000000000000000000000000000000000000000000000600052602160045260246000fd5b60066000848152602001908152602001600020600b0160009054906101000a900460ff166005811115611b67577f4e487b7100000000000000000000000000000000000000000000000000000000600052602160045260246000fd5b1415611baa576040518060400160405280600c81526020017f50726f6475637420536f6c6400000000000000000000000000000000000000008152509050611be5565b6040517f08c379a0000000000000000000000000000000000000000000000000000000008152600401611bdc906129eb565b60405180910390fd5b919050565b600081118015611bfc57506001548111155b611c3b576040517f08c379a0000000000000000000000000000000000000000000000000000000008152600401611c329061298b565b60405180910390fd5b6000611c46336122e2565b905060008111611c8b576040517f08c379a0000000000000000000000000000000000000000000000000000000008152600401611c829061294b565b60405180910390fd5b60066000838152602001908152602001600020600a01548114611ce3576040517f08c379a0000000000000000000000000000000000000000000000000000000008152600401611cda90612a0b565b60405180910390fd5b60046005811115611d1d577f4e487b7100000000000000000000000000000000000000000000000000000000600052602160045260246000fd5b60066000848152602001908152602001600020600b0160009054906101000a900460ff166005811115611d79577f4e487b7100000000000000000000000000000000000000000000000000000000600052602160045260246000fd5b14611db9576040517f08c379a0000000000000000000000000000000000000000000000000000000008152600401611db0906129ab565b60405180910390fd5b6000600660008481526020019081526020016000209050600081600401548260030154611de69190612bbc565b9050803414611e2a576040517f08c379a0000000000000000000000000000000000000000000000000000000008152600401611e219061296b565b60405180910390fd5b6000600760008460070154815260200190815260200160002060000160009054906101000a900473ffffffffffffffffffffffffffffffffffffffff1690506000600860008560080154815260200190815260200160002060000160009054906101000a900473ffffffffffffffffffffffffffffffffffffffff1690506000600960008660090154815260200190815260200160002060000160009054906101000a900473ffffffffffffffffffffffffffffffffffffffff1690506000600385611ef69190612b8b565b90508173ffffffffffffffffffffffffffffffffffffffff166108fc829081150290604051600060405180830381858888f19350505050158015611f3e573d6000803e3d6000fd5b508273ffffffffffffffffffffffffffffffffffffffff166108fc829081150290604051600060405180830381858888f19350505050158015611f85573d6000803e3d6000fd5b508373ffffffffffffffffffffffffffffffffffffffff166108fc829081150290604051600060405180830381858888f19350505050158015611fcc573d6000803e3d6000fd5b50600586600b0160006101000a81548160ff0219169083600581111561201b577f4e487b7100000000000000000000000000000000000000000000000000000000600052602160045260246000fd5b0217905550877fe07678ebda9ff268c2c8531bb0ebfc488d9fa7067d919572337a14a72c3aa0b76005604051612051919061290e565b60405180910390a25050505050505050565b60006006600083815260200190815260200160002090506000816004015482600301546120909190612bbc565b90508034146120d4576040517f08c379a00000000000000000000000000000000000000000000000000000000081526004016120cb9061296b565b60405180910390fd5b600382600b0160006101000a81548160ff02191690836005811115612122577f4e487b7100000000000000000000000000000000000000000000000000000000600052602160045260246000fd5b0217905550827fe07678ebda9ff268c2c8531bb0ebfc488d9fa7067d919572337a14a72c3aa0b76003604051612158919061290e565b60405180910390a2505050565b600660205280600052604060002060009150905080600001549080600101805461218e90612cb9565b80601f01602080910402602001604051908101604052809291908181526020018280546121ba90612cb9565b80156122075780601f106121dc57610100808354040283529160200191612207565b820191906000526020600020905b8154815290600101906020018083116121ea57829003601f168201915b50505050509080600201805461221c90612cb9565b80601f016020809104026020016040519081016040528092919081815260200182805461224890612cb9565b80156122955780601f1061226a57610100808354040283529160200191612295565b820191906000526020600020905b81548152906001019060200180831161227857829003601f168201915b50505050509080600301549080600401549080600501549080600601549080600701549080600801549080600901549080600a01549080600b0160009054906101000a900460ff1690508c565b600080600190505b600554811161238f578273ffffffffffffffffffffffffffffffffffffffff16600a600083815260200190815260200160002060000160009054906101000a900473ffffffffffffffffffffffffffffffffffffffff1673ffffffffffffffffffffffffffffffffffffffff16141561237c57600a6000828152602001908152602001600020600101549150506123cb565b808061238790612ceb565b9150506122ea565b506040517f08c379a00000000000000000000000000000000000000000000000000000000081526004016123c29061294b565b60405180910390fd5b919050565b8280546123dc90612cb9565b90600052602060002090601f0160209004810192826123fe5760008555612445565b82601f1061241757805160ff1916838001178555612445565b82800160010185558215612445579182015b82811115612444578251825591602001919060010190612429565b5b5090506124529190612456565b5090565b5b8082111561246f576000816000905550600101612457565b5090565b600061248661248184612b3f565b612b0e565b90508281526020810184848401111561249e57600080fd5b6124a9848285612c77565b509392505050565b6000813590506124c081612e44565b92915050565b600082601f8301126124d757600080fd5b81356124e7848260208601612473565b91505092915050565b6000813590506124ff81612e5b565b92915050565b60008060006060848603121561251a57600080fd5b6000612528868287016124b1565b935050602084013567ffffffffffffffff81111561254557600080fd5b612551868287016124c6565b925050604084013567ffffffffffffffff81111561256e57600080fd5b61257a868287016124c6565b9150509250925092565b600080600080600060a0868803121561259c57600080fd5b600086013567ffffffffffffffff8111156125b657600080fd5b6125c2888289016124c6565b955050602086013567ffffffffffffffff8111156125df57600080fd5b6125eb888289016124c6565b94505060406125fc888289016124f0565b935050606061260d888289016124f0565b925050608061261e888289016124f0565b9150509295509295909350565b60006020828403121561263d57600080fd5b600061264b848285016124f0565b91505092915050565b61265d81612c16565b82525050565b61266c81612c65565b82525050565b600061267d82612b6f565b6126878185612b7a565b9350612697818560208601612c86565b6126a081612e1f565b840191505092915050565b60006126b8601a83612b7a565b91507f57617265686f757365206167656e74206e6f7420666f756e642e0000000000006000830152602082019050919050565b60006126f8601983612b7a565b91507f496e636f7272656374207061796d656e7420616d6f756e742e000000000000006000830152602082019050919050565b6000612738601483612b7a565b91507f496e76616c6964206d65646963696e652049442e0000000000000000000000006000830152602082019050919050565b6000612778601083612b7a565b91507f496e636f72726563742073746167652e000000000000000000000000000000006000830152602082019050919050565b60006127b8602783612b7a565b91507f4f6e6c7920746865206f776e65722063616e20706572666f726d20746869732060008301527f616374696f6e2e000000000000000000000000000000000000000000000000006020830152604082019050919050565b600061281e601083612b7a565b91507f5374616765206e6f7420666f756e642e000000000000000000000000000000006000830152602082019050919050565b600061285e601783612b7a565b91507f556e617574686f72697a65642077617265686f7573652e0000000000000000006000830152602082019050919050565b61289a81612c5b565b82525050565b60006020820190506128b56000830184612654565b92915050565b60006080820190506128d06000830187612654565b6128dd6020830186612891565b81810360408301526128ef8185612672565b905081810360608301526129038184612672565b905095945050505050565b60006020820190506129236000830184612663565b92915050565b600060208201905081810360008301526129438184612672565b905092915050565b60006020820190508181036000830152612964816126ab565b9050919050565b60006020820190508181036000830152612984816126eb565b9050919050565b600060208201905081810360008301526129a48161272b565b9050919050565b600060208201905081810360008301526129c48161276b565b9050919050565b600060208201905081810360008301526129e4816127ab565b9050919050565b60006020820190508181036000830152612a0481612811565b9050919050565b60006020820190508181036000830152612a2481612851565b9050919050565b6000602082019050612a406000830184612891565b92915050565b600061018082019050612a5c600083018f612891565b8181036020830152612a6e818e612672565b90508181036040830152612a82818d612672565b9050612a91606083018c612891565b612a9e608083018b612891565b612aab60a083018a612891565b612ab860c0830189612891565b612ac560e0830188612891565b612ad3610100830187612891565b612ae1610120830186612891565b612aef610140830185612891565b612afd610160830184612663565b9d9c50505050505050505050505050565b6000604051905081810181811067ffffffffffffffff82111715612b3557612b34612df0565b5b8060405250919050565b600067ffffffffffffffff821115612b5a57612b59612df0565b5b601f19601f8301169050602081019050919050565b600081519050919050565b600082825260208201905092915050565b6000612b9682612c5b565b9150612ba183612c5b565b925082612bb157612bb0612d63565b5b828204905092915050565b6000612bc782612c5b565b9150612bd283612c5b565b9250817fffffffffffffffffffffffffffffffffffffffffffffffffffffffffffffffff0483118215151615612c0b57612c0a612d34565b5b828202905092915050565b6000612c2182612c3b565b9050919050565b6000819050612c3682612e30565b919050565b600073ffffffffffffffffffffffffffffffffffffffff82169050919050565b6000819050919050565b6000612c7082612c28565b9050919050565b82818337600083830152505050565b60005b83811015612ca4578082015181840152602081019050612c89565b83811115612cb3576000848401525b50505050565b60006002820490506001821680612cd157607f821691505b60208210811415612ce557612ce4612dc1565b5b50919050565b6000612cf682612c5b565b91507fffffffffffffffffffffffffffffffffffffffffffffffffffffffffffffffff821415612d2957612d28612d34565b5b600182019050919050565b7f4e487b7100000000000000000000000000000000000000000000000000000000600052601160045260246000fd5b7f4e487b7100000000000000000000000000000000000000000000000000000000600052601260045260246000fd5b7f4e487b7100000000000000000000000000000000000000000000000000000000600052602160045260246000fd5b7f4e487b7100000000000000000000000000000000000000000000000000000000600052602260045260246000fd5b7f4e487b7100000000000000000000000000000000000000000000000000000000600052604160045260246000fd5b6000601f19601f8301169050919050565b60068110612e4157612e40612d92565b5b50565b612e4d81612c16565b8114612e5857600080fd5b50565b612e6481612c5b565b8114612e6f57600080fd5b5056fea26469706673582212209806621afd104c29d938bb79d69a3426600d0cdd5aeae2e17f7bab90e173db8a64736f6c63430008000033",
  "immutableReferences": {},
  "source": "// SPDX-License-Identifier: MIT\npragma solidity >=0.8.0 <0.9.0;\n\ncontract SupplyChain {\n    address public Owner;\n\n    constructor() {\n        Owner = msg.sender;\n    }\n\n    modifier onlyByOwner() {\n        require(msg.sender == Owner, \"Only the owner can perform this action.\");\n        _;\n    }\n\n    enum STAGE {\n        Init,\n        Manufacture,\n        Shipping,\n        Distribution,\n        Warehouse,\n        Sold\n    }\n\n    uint256 public medicineCtr = 0;\n    uint256 public manCtr = 0;\n    uint256 public shipCtr = 0;\n    uint256 public disCtr = 0;\n    uint256 public warCtr = 0;\n\n    struct Medicine {\n        uint256 id;\n        string name;\n        string destinationCompanyName;\n        uint256 price;\n        uint256 quantity;\n        uint256 expirationDate;\n        uint256 timestamp;\n        uint256 MANid;\n        uint256 SHIPid;\n        uint256 DISid;\n        uint256 WARid;\n        STAGE stage;\n    }\n\n    mapping(uint256 => Medicine) public MedicineStock;\n\n    struct Manufacturer {\n        address addr;\n        uint256 id;\n        string name;\n        string place;\n    }\n\n    mapping(uint256 => Manufacturer) public MAN;\n\n    struct ShippingAgent {\n        address addr;\n        uint256 id;\n        string name;\n        string place;\n    }\n\n    mapping(uint256 => ShippingAgent) public SHIP;\n\n    struct Distributor {\n        address addr;\n        uint256 id;\n        string name;\n        string place;\n    }\n\n    mapping(uint256 => Distributor) public DIS;\n\n    struct WarehouseAgent {\n        address addr;\n        uint256 id;\n        string name;\n        string place;\n    }\n\n    mapping(uint256 => WarehouseAgent) public WAR;\n\n    event StageUpdated(uint256 indexed productId, STAGE stage);\n\n    function findManufacturer(address _address) internal view returns (uint256) {\n        for (uint256 i = 1; i <= manCtr; i++) {\n            if (MAN[i].addr == _address) return MAN[i].id;\n        }\n        revert(\"Manufacturer not found.\");\n    }\n\n    function findShippingAgent(address _address) internal view returns (uint256) {\n        for (uint256 i = 1; i <= shipCtr; i++) {\n            if (SHIP[i].addr == _address) return SHIP[i].id;\n        }\n        revert(\"Shipping agent not found.\");\n    }\n\n    function findDistributor(address _address) internal view returns (uint256) {\n        for (uint256 i = 1; i <= disCtr; i++) {\n            if (DIS[i].addr == _address) return DIS[i].id;\n        }\n        revert(\"Distributor not found.\");\n    }\n\n    function findWarehouseAgent(address _address) internal view returns (uint256) {\n        for (uint256 i = 1; i <= warCtr; i++) {\n            if (WAR[i].addr == _address) return WAR[i].id;\n        }\n        revert(\"Warehouse agent not found.\");\n    }\n\n    function showStage(uint256 _medicineID) public view returns (string memory) {\n        require(_medicineID > 0 && _medicineID <= medicineCtr, \"Invalid medicine ID.\");\n\n        if (MedicineStock[_medicineID].stage == STAGE.Init)\n            return \"Product Ordered\";\n        else if (MedicineStock[_medicineID].stage == STAGE.Manufacture)\n            return \"Manufacturing Stage\";\n        else if (MedicineStock[_medicineID].stage == STAGE.Shipping)\n            return \"Shipping Stage\";\n        else if (MedicineStock[_medicineID].stage == STAGE.Distribution)\n            return \"Distribution Stage\";\n        else if (MedicineStock[_medicineID].stage == STAGE.Warehouse)\n            return \"Warehouse Stage\";\n        else if (MedicineStock[_medicineID].stage == STAGE.Sold)\n            return \"Product Sold\";\n\n        revert(\"Stage not found.\");\n    }\n\n    function startManufacturing(uint256 _productId) public payable {\n        Medicine storage med = MedicineStock[_productId];\n        uint256 paymentAmount = med.price * med.quantity;\n        require(msg.value == paymentAmount, \"Incorrect payment amount.\");\n        med.stage = STAGE.Manufacture;\n        emit StageUpdated(_productId, STAGE.Manufacture);\n    }\n\n    function startShipping(uint256 _productId) public payable {\n        Medicine storage med = MedicineStock[_productId];\n        uint256 paymentAmount = med.price * med.quantity;\n        require(msg.value == paymentAmount, \"Incorrect payment amount.\");\n        med.stage = STAGE.Shipping;\n        emit StageUpdated(_productId, STAGE.Shipping);\n    }\n\n    function startDistribution(uint256 _productId) public payable {\n        Medicine storage med = MedicineStock[_productId];\n        uint256 paymentAmount = med.price * med.quantity;\n        require(msg.value == paymentAmount, \"Incorrect payment amount.\");\n        med.stage = STAGE.Distribution;\n        emit StageUpdated(_productId, STAGE.Distribution);\n    }\n\n    function storeInWarehouse(uint256 _productId) public payable {\n        Medicine storage med = MedicineStock[_productId];\n        uint256 paymentAmount = med.price * med.quantity;\n        require(msg.value == paymentAmount, \"Incorrect payment amount.\");\n        med.stage = STAGE.Warehouse;\n        emit StageUpdated(_productId, STAGE.Warehouse);\n    }\n\n    function sell(uint256 _medicineID) public payable {\n        require(_medicineID > 0 && _medicineID <= medicineCtr, \"Invalid medicine ID.\");\n        uint256 _id = findWarehouseAgent(msg.sender);\n        require(_id > 0, \"Warehouse agent not found.\");\n        require(_id == MedicineStock[_medicineID].WARid, \"Unauthorized warehouse.\");\n        require(MedicineStock[_medicineID].stage == STAGE.Warehouse, \"Incorrect stage.\");\n\n        Medicine storage med = MedicineStock[_medicineID];\n        uint256 totalPrice = med.price * med.quantity;\n        require(msg.value == totalPrice, \"Incorrect payment amount.\");\n\n        // Pay the previous entities\n        address manufacturer = MAN[med.MANid].addr;\n        address shipping = SHIP[med.SHIPid].addr;\n        address distributor = DIS[med.DISid].addr;\n\n        uint256 paymentAmount = totalPrice / 3;\n\n        // Payment from Warehouse to Distributor\n        payable(distributor).transfer(paymentAmount);\n        // Payment from Distributor to Shipping\n        payable(shipping).transfer(paymentAmount);\n        // Payment from Shipping to Manufacturer\n        payable(manufacturer).transfer(paymentAmount);\n\n        // Mark the medicine as sold\n        med.stage = STAGE.Sold;\n        emit StageUpdated(_medicineID, STAGE.Sold);\n    }\n\n    function addMedicine(\n        string memory _name,\n        string memory _destinationCompanyName,\n        uint256 _price,\n        uint256 _quantity,\n        uint256 _expirationDate\n    ) public onlyByOwner {\n        medicineCtr++;\n        MedicineStock[medicineCtr] = Medicine(\n            medicineCtr,\n            _name,\n            _destinationCompanyName,\n            _price,\n            _quantity,\n            _expirationDate,\n            block.timestamp,\n            0, // Initialize manufacturer ID\n            0, // Initialize shipping ID\n            0, // Initialize distributor ID\n            0, // Initialize warehouse ID\n            STAGE.Init\n        );\n    }\n\n    function addManufacturer(\n        address _addr,\n        string memory _name,\n        string memory _place\n    ) public onlyByOwner {\n        manCtr++;\n        MAN[manCtr] = Manufacturer(_addr, manCtr, _name, _place);\n    }\n\n    function addShippingAgent(\n        address _addr,\n        string memory _name,\n        string memory _place\n    ) public onlyByOwner {\n        shipCtr++;\n        SHIP[shipCtr] = ShippingAgent(_addr, shipCtr, _name, _place);\n    }\n\n    function addDistributor(\n        address _addr,\n        string memory _name,\n        string memory _place\n    ) public onlyByOwner {\n        disCtr++;\n        DIS[disCtr] = Distributor(_addr, disCtr, _name, _place);\n    }\n\n    function addWarehouseAgent(\n        address _addr,\n        string memory _name,\n        string memory _place\n    ) public onlyByOwner {\n        warCtr++;\n        WAR[warCtr] = WarehouseAgent(_addr, warCtr, _name, _place);\n    }\n}\n",
  "sourcePath": "C:\\Users\\DELL\\projects\\Shipment-Tracking-System-Using-Blockchain-main\\contracts\\SupplyChain.sol",
  "compiler": {
    "name": "solc",
    "version": "0.8.0+commit.c7dfd78e.Emscripten.clang"
  },
  "schemaVersion": "3.4.16",
  "updatedAt": "2024-08-08T16:43:02.039Z",
  "networkType": "ethereum",
  "devdoc": {
    "kind": "dev",
    "methods": {},
    "version": 1
  },
  "userdoc": {
    "kind": "user",
    "methods": {},
    "version": 1
  }
}