{
  "contractName": "SupplyChain",
  "abi": [
    {
      "inputs": [],
      "stateMutability": "nonpayable",
      "type": "constructor"
    },
    {
      "anonymous": false,
      "inputs": [
        {
          "indexed": true,
          "internalType": "address",
          "name": "from",
          "type": "address"
        },
        {
          "indexed": true,
          "internalType": "address",
          "name": "to",
          "type": "address"
        },
        {
          "indexed": false,
          "internalType": "uint256",
          "name": "amount",
          "type": "uint256"
        },
        {
          "indexed": false,
          "internalType": "uint256",
          "name": "productId",
          "type": "uint256"
        },
        {
          "indexed": false,
          "internalType": "enum SupplyChain.STAGE",
          "name": "stage",
          "type": "uint8"
        }
      ],
      "name": "PaymentMade",
      "type": "event"
    },
    {
      "anonymous": false,
      "inputs": [
        {
          "indexed": true,
          "internalType": "uint256",
          "name": "productId",
          "type": "uint256"
        },
        {
          "indexed": false,
          "internalType": "enum SupplyChain.STAGE",
          "name": "stage",
          "type": "uint8"
        }
      ],
      "name": "StageUpdated",
      "type": "event"
    },
    {
      "inputs": [
        {
          "internalType": "uint256",
          "name": "",
          "type": "uint256"
        }
      ],
      "name": "DIS",
      "outputs": [
        {
          "internalType": "address",
          "name": "addr",
          "type": "address"
        },
        {
          "internalType": "uint256",
          "name": "id",
          "type": "uint256"
        },
        {
          "internalType": "string",
          "name": "name",
          "type": "string"
        },
        {
          "internalType": "string",
          "name": "place",
          "type": "string"
        }
      ],
      "stateMutability": "view",
      "type": "function"
    },
    {
      "inputs": [
        {
          "internalType": "uint256",
          "name": "",
          "type": "uint256"
        }
      ],
      "name": "MAN",
      "outputs": [
        {
          "internalType": "address",
          "name": "addr",
          "type": "address"
        },
        {
          "internalType": "uint256",
          "name": "id",
          "type": "uint256"
        },
        {
          "internalType": "string",
          "name": "name",
          "type": "string"
        },
        {
          "internalType": "string",
          "name": "place",
          "type": "string"
        }
      ],
      "stateMutability": "view",
      "type": "function"
    },
    {
      "inputs": [
        {
          "internalType": "uint256",
          "name": "",
          "type": "uint256"
        }
      ],
      "name": "MedicineStock",
      "outputs": [
        {
          "internalType": "uint256",
          "name": "id",
          "type": "uint256"
        },
        {
          "internalType": "string",
          "name": "name",
          "type": "string"
        },
        {
          "internalType": "string",
          "name": "destinationCompanyName",
          "type": "string"
        },
        {
          "internalType": "uint256",
          "name": "price",
          "type": "uint256"
        },
        {
          "internalType": "uint256",
          "name": "quantity",
          "type": "uint256"
        },
        {
          "internalType": "uint256",
          "name": "expirationDate",
          "type": "uint256"
        },
        {
          "internalType": "uint256",
          "name": "timestamp",
          "type": "uint256"
        },
        {
          "internalType": "uint256",
          "name": "MANid",
          "type": "uint256"
        },
        {
          "internalType": "uint256",
          "name": "SHIPid",
          "type": "uint256"
        },
        {
          "internalType": "uint256",
          "name": "DISid",
          "type": "uint256"
        },
        {
          "internalType": "uint256",
          "name": "WARid",
          "type": "uint256"
        },
        {
          "internalType": "enum SupplyChain.STAGE",
          "name": "stage",
          "type": "uint8"
        }
      ],
      "stateMutability": "view",
      "type": "function"
    },
    {
      "inputs": [],
      "name": "Owner",
      "outputs": [
        {
          "internalType": "address",
          "name": "",
          "type": "address"
        }
      ],
      "stateMutability": "view",
      "type": "function"
    },
    {
      "inputs": [
        {
          "internalType": "uint256",
          "name": "",
          "type": "uint256"
        }
      ],
      "name": "SHIP",
      "outputs": [
        {
          "internalType": "address",
          "name": "addr",
          "type": "address"
        },
        {
          "internalType": "uint256",
          "name": "id",
          "type": "uint256"
        },
        {
          "internalType": "string",
          "name": "name",
          "type": "string"
        },
        {
          "internalType": "string",
          "name": "place",
          "type": "string"
        }
      ],
      "stateMutability": "view",
      "type": "function"
    },
    {
      "inputs": [
        {
          "internalType": "uint256",
          "name": "",
          "type": "uint256"
        }
      ],
      "name": "WAR",
      "outputs": [
        {
          "internalType": "address",
          "name": "addr",
          "type": "address"
        },
        {
          "internalType": "uint256",
          "name": "id",
          "type": "uint256"
        },
        {
          "internalType": "string",
          "name": "name",
          "type": "string"
        },
        {
          "internalType": "string",
          "name": "place",
          "type": "string"
        }
      ],
      "stateMutability": "view",
      "type": "function"
    },
    {
      "inputs": [],
      "name": "disCtr",
      "outputs": [
        {
          "internalType": "uint256",
          "name": "",
          "type": "uint256"
        }
      ],
      "stateMutability": "view",
      "type": "function"
    },
    {
      "inputs": [],
      "name": "manCtr",
      "outputs": [
        {
          "internalType": "uint256",
          "name": "",
          "type": "uint256"
        }
      ],
      "stateMutability": "view",
      "type": "function"
    },
    {
      "inputs": [],
      "name": "medicineCtr",
      "outputs": [
        {
          "internalType": "uint256",
          "name": "",
          "type": "uint256"
        }
      ],
      "stateMutability": "view",
      "type": "function"
    },
    {
      "inputs": [],
      "name": "shipCtr",
      "outputs": [
        {
          "internalType": "uint256",
          "name": "",
          "type": "uint256"
        }
      ],
      "stateMutability": "view",
      "type": "function"
    },
    {
      "inputs": [],
      "name": "warCtr",
      "outputs": [
        {
          "internalType": "uint256",
          "name": "",
          "type": "uint256"
        }
      ],
      "stateMutability": "view",
      "type": "function"
    },
    {
      "inputs": [
        {
          "internalType": "uint256",
          "name": "_medicineID",
          "type": "uint256"
        }
      ],
      "name": "showStage",
      "outputs": [
        {
          "internalType": "string",
          "name": "",
          "type": "string"
        }
      ],
      "stateMutability": "view",
      "type": "function"
    },
    {
      "inputs": [
        {
          "internalType": "uint256",
          "name": "_productId",
          "type": "uint256"
        }
      ],
      "name": "startManufacturing",
      "outputs": [],
      "stateMutability": "payable",
      "type": "function"
    },
    {
      "inputs": [
        {
          "internalType": "uint256",
          "name": "_productId",
          "type": "uint256"
        }
      ],
      "name": "startShipping",
      "outputs": [],
      "stateMutability": "payable",
      "type": "function"
    },
    {
      "inputs": [
        {
          "internalType": "uint256",
          "name": "_productId",
          "type": "uint256"
        }
      ],
      "name": "startDistribution",
      "outputs": [],
      "stateMutability": "payable",
      "type": "function"
    },
    {
      "inputs": [
        {
          "internalType": "uint256",
          "name": "_productId",
          "type": "uint256"
        }
      ],
      "name": "storeInWarehouse",
      "outputs": [],
      "stateMutability": "payable",
      "type": "function"
    },
    {
      "inputs": [
        {
          "internalType": "uint256",
          "name": "_medicineID",
          "type": "uint256"
        }
      ],
      "name": "sell",
      "outputs": [],
      "stateMutability": "payable",
      "type": "function"
    },
    {
      "inputs": [
        {
          "internalType": "string",
          "name": "_name",
          "type": "string"
        },
        {
          "internalType": "string",
          "name": "_destinationCompanyName",
          "type": "string"
        },
        {
          "internalType": "uint256",
          "name": "_price",
          "type": "uint256"
        },
        {
          "internalType": "uint256",
          "name": "_quantity",
          "type": "uint256"
        },
        {
          "internalType": "uint256",
          "name": "_expirationDate",
          "type": "uint256"
        }
      ],
      "name": "addMedicine",
      "outputs": [],
      "stateMutability": "nonpayable",
      "type": "function"
    },
    {
      "inputs": [
        {
          "internalType": "address",
          "name": "_addr",
          "type": "address"
        },
        {
          "internalType": "string",
          "name": "_name",
          "type": "string"
        },
        {
          "internalType": "string",
          "name": "_place",
          "type": "string"
        }
      ],
      "name": "addManufacturer",
      "outputs": [],
      "stateMutability": "nonpayable",
      "type": "function"
    },
    {
      "inputs": [
        {
          "internalType": "address",
          "name": "_addr",
          "type": "address"
        },
        {
          "internalType": "string",
          "name": "_name",
          "type": "string"
        },
        {
          "internalType": "string",
          "name": "_place",
          "type": "string"
        }
      ],
      "name": "addShippingAgent",
      "outputs": [],
      "stateMutability": "nonpayable",
      "type": "function"
    },
    {
      "inputs": [
        {
          "internalType": "address",
          "name": "_addr",
          "type": "address"
        },
        {
          "internalType": "string",
          "name": "_name",
          "type": "string"
        },
        {
          "internalType": "string",
          "name": "_place",
          "type": "string"
        }
      ],
      "name": "addDistributor",
      "outputs": [],
      "stateMutability": "nonpayable",
      "type": "function"
    },
    {
      "inputs": [
        {
          "internalType": "address",
          "name": "_addr",
          "type": "address"
        },
        {
          "internalType": "string",
          "name": "_name",
          "type": "string"
        },
        {
          "internalType": "string",
          "name": "_place",
          "type": "string"
        }
      ],
      "name": "addWarehouseAgent",
      "outputs": [],
      "stateMutability": "nonpayable",
      "type": "function"
    }
  ],
  "bytecode": "0x60806040526000600155600060025560006003556000600455600060055534801561002957600080fd5b50336000806101000a81548173ffffffffffffffffffffffffffffffffffffffff021916908373ffffffffffffffffffffffffffffffffffffffff16021790555061364a806100796000396000f3fe6080604052600436106101355760003560e01c80638afc54d9116100ab578063cc4030691161006f578063cc403069146103dd578063de1055261461041d578063e101a2e01461045d578063e4849b321461049a578063e7979689146104b6578063eb1a06b5146104d257610135565b80638afc54d914610324578063a95f29d91461034f578063aa891f221461037a578063b4a99a4e14610396578063b79a104c146103c157610135565b8063476a4558116100fd578063476a4558146102225780634b4c9c661461024b5780634ce2dd421461028b5780635f9f07f9146102b65780636a992c9f146102df5780637d0ac2c41461030857610135565b80632923cb6f1461013a5780632a4af440146101635780632b0187ac1461018c5780632bdb2e6b146101cc578063438e9c4d146101f7575b600080fd5b34801561014657600080fd5b50610161600480360381019061015c9190612b50565b61051a565b005b34801561016f57600080fd5b5061018a60048036038101906101859190612b50565b6106a1565b005b34801561019857600080fd5b506101b360048036038101906101ae9190612c76565b610828565b6040516101c39493929190612fc6565b60405180910390f35b3480156101d857600080fd5b506101e1610988565b6040516101ee9190613196565b60405180910390f35b34801561020357600080fd5b5061020c61098e565b6040516102199190613196565b60405180910390f35b34801561022e57600080fd5b5061024960048036038101906102449190612b50565b610994565b005b34801561025757600080fd5b50610272600480360381019061026d9190612c76565b610b1b565b6040516102829493929190612fc6565b60405180910390f35b34801561029757600080fd5b506102a0610c7b565b6040516102ad9190613196565b60405180910390f35b3480156102c257600080fd5b506102dd60048036038101906102d89190612bcf565b610c81565b005b3480156102eb57600080fd5b5061030660048036038101906103019190612b50565b610ec5565b005b610322600480360381019061031d9190612c76565b61104c565b005b34801561033057600080fd5b50610339611250565b6040516103469190613196565b60405180910390f35b34801561035b57600080fd5b50610364611256565b6040516103719190613196565b60405180910390f35b610394600480360381019061038f9190612c76565b61125c565b005b3480156103a257600080fd5b506103ab611460565b6040516103b89190612fab565b60405180910390f35b6103db60048036038101906103d69190612c76565b611484565b005b3480156103e957600080fd5b5061040460048036038101906103ff9190612c76565b611601565b6040516104149493929190612fc6565b60405180910390f35b34801561042957600080fd5b50610444600480360381019061043f9190612c76565b611761565b6040516104549493929190612fc6565b60405180910390f35b34801561046957600080fd5b50610484600480360381019061047f9190612c76565b6118c1565b6040516104919190613034565b60405180910390f35b6104b460048036038101906104af9190612c76565b611e69565b005b6104d060048036038101906104cb9190612c76565b6122e2565b005b3480156104de57600080fd5b506104f960048036038101906104f49190612c76565b6124e6565b6040516105119c9b9a999897969594939291906131b1565b60405180910390f35b60008054906101000a900473ffffffffffffffffffffffffffffffffffffffff1673ffffffffffffffffffffffffffffffffffffffff163373ffffffffffffffffffffffffffffffffffffffff16146105a8576040517f08c379a000000000000000000000000000000000000000000000000000000000815260040161059f90613116565b60405180910390fd5b600360008154809291906105bb9061348d565b919050555060405180608001604052808473ffffffffffffffffffffffffffffffffffffffff16815260200160035481526020018381526020018281525060086000600354815260200190815260200160002060008201518160000160006101000a81548173ffffffffffffffffffffffffffffffffffffffff021916908373ffffffffffffffffffffffffffffffffffffffff16021790555060208201518160010155604082015181600201908051906020019061067b929190612a1b565b506060820151816003019080519060200190610698929190612a1b565b50905050505050565b60008054906101000a900473ffffffffffffffffffffffffffffffffffffffff1673ffffffffffffffffffffffffffffffffffffffff163373ffffffffffffffffffffffffffffffffffffffff161461072f576040517f08c379a000000000000000000000000000000000000000000000000000000000815260040161072690613116565b60405180910390fd5b600460008154809291906107429061348d565b919050555060405180608001604052808473ffffffffffffffffffffffffffffffffffffffff16815260200160045481526020018381526020018281525060096000600454815260200190815260200160002060008201518160000160006101000a81548173ffffffffffffffffffffffffffffffffffffffff021916908373ffffffffffffffffffffffffffffffffffffffff160217905550602082015181600101556040820151816002019080519060200190610802929190612a1b565b50606082015181600301908051906020019061081f929190612a1b565b50905050505050565b60096020528060005260406000206000915090508060000160009054906101000a900473ffffffffffffffffffffffffffffffffffffffff16908060010154908060020180546108779061345b565b80601f01602080910402602001604051908101604052809291908181526020018280546108a39061345b565b80156108f05780601f106108c5576101008083540402835291602001916108f0565b820191906000526020600020905b8154815290600101906020018083116108d357829003601f168201915b5050505050908060030180546109059061345b565b80601f01602080910402602001604051908101604052809291908181526020018280546109319061345b565b801561097e5780601f106109535761010080835404028352916020019161097e565b820191906000526020600020905b81548152906001019060200180831161096157829003601f168201915b5050505050905084565b60045481565b60025481565b60008054906101000a900473ffffffffffffffffffffffffffffffffffffffff1673ffffffffffffffffffffffffffffffffffffffff163373ffffffffffffffffffffffffffffffffffffffff1614610a22576040517f08c379a0000000000000000000000000000000000000000000000000000000008152600401610a1990613116565b60405180910390fd5b60056000815480929190610a359061348d565b919050555060405180608001604052808473ffffffffffffffffffffffffffffffffffffffff168152602001600554815260200183815260200182815250600a6000600554815260200190815260200160002060008201518160000160006101000a81548173ffffffffffffffffffffffffffffffffffffffff021916908373ffffffffffffffffffffffffffffffffffffffff160217905550602082015181600101556040820151816002019080519060200190610af5929190612a1b565b506060820151816003019080519060200190610b12929190612a1b565b50905050505050565b60086020528060005260406000206000915090508060000160009054906101000a900473ffffffffffffffffffffffffffffffffffffffff1690806001015490806002018054610b6a9061345b565b80601f0160208091040260200160405190810160405280929190818152602001828054610b969061345b565b8015610be35780601f10610bb857610100808354040283529160200191610be3565b820191906000526020600020905b815481529060010190602001808311610bc657829003601f168201915b505050505090806003018054610bf89061345b565b80601f0160208091040260200160405190810160405280929190818152602001828054610c249061345b565b8015610c715780601f10610c4657610100808354040283529160200191610c71565b820191906000526020600020905b815481529060010190602001808311610c5457829003601f168201915b5050505050905084565b60035481565b60008054906101000a900473ffffffffffffffffffffffffffffffffffffffff1673ffffffffffffffffffffffffffffffffffffffff163373ffffffffffffffffffffffffffffffffffffffff1614610d0f576040517f08c379a0000000000000000000000000000000000000000000000000000000008152600401610d0690613116565b60405180910390fd5b60016000815480929190610d229061348d565b919050555060405180610180016040528060015481526020018681526020018581526020018481526020018381526020018281526020014281526020016000815260200160008152602001600081526020016000815260200160006005811115610db5577f4e487b7100000000000000000000000000000000000000000000000000000000600052602160045260246000fd5b815250600660006001548152602001908152602001600020600082015181600001556020820151816001019080519060200190610df3929190612a1b565b506040820151816002019080519060200190610e10929190612a1b565b50606082015181600301556080820151816004015560a0820151816005015560c0820151816006015560e082015181600701556101008201518160080155610120820151816009015561014082015181600a015561016082015181600b0160006101000a81548160ff02191690836005811115610eb6577f4e487b7100000000000000000000000000000000000000000000000000000000600052602160045260246000fd5b02179055509050505050505050565b60008054906101000a900473ffffffffffffffffffffffffffffffffffffffff1673ffffffffffffffffffffffffffffffffffffffff163373ffffffffffffffffffffffffffffffffffffffff1614610f53576040517f08c379a0000000000000000000000000000000000000000000000000000000008152600401610f4a90613116565b60405180910390fd5b60026000815480929190610f669061348d565b919050555060405180608001604052808473ffffffffffffffffffffffffffffffffffffffff16815260200160025481526020018381526020018281525060076000600254815260200190815260200160002060008201518160000160006101000a81548173ffffffffffffffffffffffffffffffffffffffff021916908373ffffffffffffffffffffffffffffffffffffffff160217905550602082015181600101556040820151816002019080519060200190611026929190612a1b565b506060820151816003019080519060200190611043929190612a1b565b50905050505050565b6000600660008381526020019081526020016000209050600081600401548260030154611079919061335e565b90506000600960008460090154815260200190815260200160002060000160009054906101000a900473ffffffffffffffffffffffffffffffffffffffff1690508134146110fc576040517f08c379a00000000000000000000000000000000000000000000000000000000081526004016110f3906130b6565b60405180910390fd5b8073ffffffffffffffffffffffffffffffffffffffff166108fc839081150290604051600060405180830381858888f19350505050158015611142573d6000803e3d6000fd5b5061114c33612663565b83600a0181905550600483600b0160006101000a81548160ff021916908360058111156111a2577f4e487b7100000000000000000000000000000000000000000000000000000000600052602160045260246000fd5b0217905550837fe07678ebda9ff268c2c8531bb0ebfc488d9fa7067d919572337a14a72c3aa0b760046040516111d89190613019565b60405180910390a28073ffffffffffffffffffffffffffffffffffffffff163373ffffffffffffffffffffffffffffffffffffffff167ff35f1f16f2541a8f5c4870ae5cf7e4be7e22659d12e6e3021b1a49f552959e283487600460405161124293929190613279565b60405180910390a350505050565b60055481565b60015481565b6000600660008381526020019081526020016000209050600081600401548260030154611289919061335e565b90506000600760008460070154815260200190815260200160002060000160009054906101000a900473ffffffffffffffffffffffffffffffffffffffff16905081341461130c576040517f08c379a0000000000000000000000000000000000000000000000000000000008152600401611303906130b6565b60405180910390fd5b8073ffffffffffffffffffffffffffffffffffffffff166108fc839081150290604051600060405180830381858888f19350505050158015611352573d6000803e3d6000fd5b5061135c33612751565b8360080181905550600283600b0160006101000a81548160ff021916908360058111156113b2577f4e487b7100000000000000000000000000000000000000000000000000000000600052602160045260246000fd5b0217905550837fe07678ebda9ff268c2c8531bb0ebfc488d9fa7067d919572337a14a72c3aa0b760026040516113e89190613019565b60405180910390a28073ffffffffffffffffffffffffffffffffffffffff163373ffffffffffffffffffffffffffffffffffffffff167ff35f1f16f2541a8f5c4870ae5cf7e4be7e22659d12e6e3021b1a49f552959e283487600260405161145293929190613279565b60405180910390a350505050565b60008054906101000a900473ffffffffffffffffffffffffffffffffffffffff1681565b60006006600083815260200190815260200160002090506000816004015482600301546114b1919061335e565b90508034146114f5576040517f08c379a00000000000000000000000000000000000000000000000000000000081526004016114ec906130b6565b60405180910390fd5b6114fe3361283f565b8260070181905550600182600b0160006101000a81548160ff02191690836005811115611554577f4e487b7100000000000000000000000000000000000000000000000000000000600052602160045260246000fd5b0217905550827fe07678ebda9ff268c2c8531bb0ebfc488d9fa7067d919572337a14a72c3aa0b7600160405161158a9190613019565b60405180910390a23073ffffffffffffffffffffffffffffffffffffffff163373ffffffffffffffffffffffffffffffffffffffff167ff35f1f16f2541a8f5c4870ae5cf7e4be7e22659d12e6e3021b1a49f552959e28348660016040516115f493929190613279565b60405180910390a3505050565b60076020528060005260406000206000915090508060000160009054906101000a900473ffffffffffffffffffffffffffffffffffffffff16908060010154908060020180546116509061345b565b80601f016020809104026020016040519081016040528092919081815260200182805461167c9061345b565b80156116c95780601f1061169e576101008083540402835291602001916116c9565b820191906000526020600020905b8154815290600101906020018083116116ac57829003601f168201915b5050505050908060030180546116de9061345b565b80601f016020809104026020016040519081016040528092919081815260200182805461170a9061345b565b80156117575780601f1061172c57610100808354040283529160200191611757565b820191906000526020600020905b81548152906001019060200180831161173a57829003601f168201915b5050505050905084565b600a6020528060005260406000206000915090508060000160009054906101000a900473ffffffffffffffffffffffffffffffffffffffff16908060010154908060020180546117b09061345b565b80601f01602080910402602001604051908101604052809291908181526020018280546117dc9061345b565b80156118295780601f106117fe57610100808354040283529160200191611829565b820191906000526020600020905b81548152906001019060200180831161180c57829003601f168201915b50505050509080600301805461183e9061345b565b80601f016020809104026020016040519081016040528092919081815260200182805461186a9061345b565b80156118b75780601f1061188c576101008083540402835291602001916118b7565b820191906000526020600020905b81548152906001019060200180831161189a57829003601f168201915b5050505050905084565b60606000821180156118d557506001548211155b611914576040517f08c379a000000000000000000000000000000000000000000000000000000000815260040161190b906130d6565b60405180910390fd5b6000600581111561194e577f4e487b7100000000000000000000000000000000000000000000000000000000600052602160045260246000fd5b60066000848152602001908152602001600020600b0160009054906101000a900460ff1660058111156119aa577f4e487b7100000000000000000000000000000000000000000000000000000000600052602160045260246000fd5b14156119ed576040518060400160405280600f81526020017f50726f64756374204f72646572656400000000000000000000000000000000008152509050611e64565b60016005811115611a27577f4e487b7100000000000000000000000000000000000000000000000000000000600052602160045260246000fd5b60066000848152602001908152602001600020600b0160009054906101000a900460ff166005811115611a83577f4e487b7100000000000000000000000000000000000000000000000000000000600052602160045260246000fd5b1415611ac6576040518060400160405280601381526020017f4d616e75666163747572696e67205374616765000000000000000000000000008152509050611e64565b60026005811115611b00577f4e487b7100000000000000000000000000000000000000000000000000000000600052602160045260246000fd5b60066000848152602001908152602001600020600b0160009054906101000a900460ff166005811115611b5c577f4e487b7100000000000000000000000000000000000000000000000000000000600052602160045260246000fd5b1415611b9f576040518060400160405280600e81526020017f5368697070696e672053746167650000000000000000000000000000000000008152509050611e64565b60036005811115611bd9577f4e487b7100000000000000000000000000000000000000000000000000000000600052602160045260246000fd5b60066000848152602001908152602001600020600b0160009054906101000a900460ff166005811115611c35577f4e487b7100000000000000000000000000000000000000000000000000000000600052602160045260246000fd5b1415611c78576040518060400160405280601281526020017f446973747269627574696f6e20537461676500000000000000000000000000008152509050611e64565b60046005811115611cb2577f4e487b7100000000000000000000000000000000000000000000000000000000600052602160045260246000fd5b60066000848152602001908152602001600020600b0160009054906101000a900460ff166005811115611d0e577f4e487b7100000000000000000000000000000000000000000000000000000000600052602160045260246000fd5b1415611d51576040518060400160405280600f81526020017f57617265686f75736520537461676500000000000000000000000000000000008152509050611e64565b600580811115611d8a577f4e487b7100000000000000000000000000000000000000000000000000000000600052602160045260246000fd5b60066000848152602001908152602001600020600b0160009054906101000a900460ff166005811115611de6577f4e487b7100000000000000000000000000000000000000000000000000000000600052602160045260246000fd5b1415611e29576040518060400160405280600c81526020017f50726f6475637420536f6c6400000000000000000000000000000000000000008152509050611e64565b6040517f08c379a0000000000000000000000000000000000000000000000000000000008152600401611e5b90613136565b60405180910390fd5b919050565b600081118015611e7b57506001548111155b611eba576040517f08c379a0000000000000000000000000000000000000000000000000000000008152600401611eb1906130d6565b60405180910390fd5b6000611ec533612663565b905060008111611f0a576040517f08c379a0000000000000000000000000000000000000000000000000000000008152600401611f0190613096565b60405180910390fd5b60066000838152602001908152602001600020600a01548114611f62576040517f08c379a0000000000000000000000000000000000000000000000000000000008152600401611f5990613176565b60405180910390fd5b60046005811115611f9c577f4e487b7100000000000000000000000000000000000000000000000000000000600052602160045260246000fd5b60066000848152602001908152602001600020600b0160009054906101000a900460ff166005811115611ff8577f4e487b7100000000000000000000000000000000000000000000000000000000600052602160045260246000fd5b14612038576040517f08c379a000000000000000000000000000000000000000000000000000000000815260040161202f906130f6565b60405180910390fd5b6000600660008481526020019081526020016000209050600081600401548260030154612065919061335e565b90508034146120a9576040517f08c379a00000000000000000000000000000000000000000000000000000000081526004016120a0906130b6565b60405180910390fd5b6000600760008460070154815260200190815260200160002060000160009054906101000a900473ffffffffffffffffffffffffffffffffffffffff1690506000600860008560080154815260200190815260200160002060000160009054906101000a900473ffffffffffffffffffffffffffffffffffffffff1690506000600960008660090154815260200190815260200160002060000160009054906101000a900473ffffffffffffffffffffffffffffffffffffffff1690506000600385612175919061332d565b90508173ffffffffffffffffffffffffffffffffffffffff166108fc829081150290604051600060405180830381858888f193505050501580156121bd573d6000803e3d6000fd5b508273ffffffffffffffffffffffffffffffffffffffff166108fc829081150290604051600060405180830381858888f19350505050158015612204573d6000803e3d6000fd5b508373ffffffffffffffffffffffffffffffffffffffff166108fc829081150290604051600060405180830381858888f1935050505015801561224b573d6000803e3d6000fd5b50600586600b0160006101000a81548160ff0219169083600581111561229a577f4e487b7100000000000000000000000000000000000000000000000000000000600052602160045260246000fd5b0217905550877fe07678ebda9ff268c2c8531bb0ebfc488d9fa7067d919572337a14a72c3aa0b760056040516122d09190613019565b60405180910390a25050505050505050565b600060066000838152602001908152602001600020905060008160040154826003015461230f919061335e565b90506000600860008460080154815260200190815260200160002060000160009054906101000a900473ffffffffffffffffffffffffffffffffffffffff169050813414612392576040517f08c379a0000000000000000000000000000000000000000000000000000000008152600401612389906130b6565b60405180910390fd5b8073ffffffffffffffffffffffffffffffffffffffff166108fc839081150290604051600060405180830381858888f193505050501580156123d8573d6000803e3d6000fd5b506123e23361292d565b8360090181905550600383600b0160006101000a81548160ff02191690836005811115612438577f4e487b7100000000000000000000000000000000000000000000000000000000600052602160045260246000fd5b0217905550837fe07678ebda9ff268c2c8531bb0ebfc488d9fa7067d919572337a14a72c3aa0b7600360405161246e9190613019565b60405180910390a28073ffffffffffffffffffffffffffffffffffffffff163373ffffffffffffffffffffffffffffffffffffffff167ff35f1f16f2541a8f5c4870ae5cf7e4be7e22659d12e6e3021b1a49f552959e28348760036040516124d893929190613279565b60405180910390a350505050565b600660205280600052604060002060009150905080600001549080600101805461250f9061345b565b80601f016020809104026020016040519081016040528092919081815260200182805461253b9061345b565b80156125885780601f1061255d57610100808354040283529160200191612588565b820191906000526020600020905b81548152906001019060200180831161256b57829003601f168201915b50505050509080600201805461259d9061345b565b80601f01602080910402602001604051908101604052809291908181526020018280546125c99061345b565b80156126165780601f106125eb57610100808354040283529160200191612616565b820191906000526020600020905b8154815290600101906020018083116125f957829003601f168201915b50505050509080600301549080600401549080600501549080600601549080600701549080600801549080600901549080600a01549080600b0160009054906101000a900460ff1690508c565b600080600190505b6005548111612710578273ffffffffffffffffffffffffffffffffffffffff16600a600083815260200190815260200160002060000160009054906101000a900473ffffffffffffffffffffffffffffffffffffffff1673ffffffffffffffffffffffffffffffffffffffff1614156126fd57600a60008281526020019081526020016000206001015491505061274c565b80806127089061348d565b91505061266b565b506040517f08c379a000000000000000000000000000000000000000000000000000000000815260040161274390613096565b60405180910390fd5b919050565b600080600190505b60035481116127fe578273ffffffffffffffffffffffffffffffffffffffff166008600083815260200190815260200160002060000160009054906101000a900473ffffffffffffffffffffffffffffffffffffffff1673ffffffffffffffffffffffffffffffffffffffff1614156127eb57600860008281526020019081526020016000206001015491505061283a565b80806127f69061348d565b915050612759565b506040517f08c379a000000000000000000000000000000000000000000000000000000000815260040161283190613056565b60405180910390fd5b919050565b600080600190505b60025481116128ec578273ffffffffffffffffffffffffffffffffffffffff166007600083815260200190815260200160002060000160009054906101000a900473ffffffffffffffffffffffffffffffffffffffff1673ffffffffffffffffffffffffffffffffffffffff1614156128d9576007600082815260200190815260200160002060010154915050612928565b80806128e49061348d565b915050612847565b506040517f08c379a000000000000000000000000000000000000000000000000000000000815260040161291f90613076565b60405180910390fd5b919050565b600080600190505b60045481116129da578273ffffffffffffffffffffffffffffffffffffffff166009600083815260200190815260200160002060000160009054906101000a900473ffffffffffffffffffffffffffffffffffffffff1673ffffffffffffffffffffffffffffffffffffffff1614156129c7576009600082815260200190815260200160002060010154915050612a16565b80806129d29061348d565b915050612935565b506040517f08c379a0000000000000000000000000000000000000000000000000000000008152600401612a0d90613156565b60405180910390fd5b919050565b828054612a279061345b565b90600052602060002090601f016020900481019282612a495760008555612a90565b82601f10612a6257805160ff1916838001178555612a90565b82800160010185558215612a90579182015b82811115612a8f578251825591602001919060010190612a74565b5b509050612a9d9190612aa1565b5090565b5b80821115612aba576000816000905550600101612aa2565b5090565b6000612ad1612acc846132e1565b6132b0565b905082815260208101848484011115612ae957600080fd5b612af4848285613419565b509392505050565b600081359050612b0b816135e6565b92915050565b600082601f830112612b2257600080fd5b8135612b32848260208601612abe565b91505092915050565b600081359050612b4a816135fd565b92915050565b600080600060608486031215612b6557600080fd5b6000612b7386828701612afc565b935050602084013567ffffffffffffffff811115612b9057600080fd5b612b9c86828701612b11565b925050604084013567ffffffffffffffff811115612bb957600080fd5b612bc586828701612b11565b9150509250925092565b600080600080600060a08688031215612be757600080fd5b600086013567ffffffffffffffff811115612c0157600080fd5b612c0d88828901612b11565b955050602086013567ffffffffffffffff811115612c2a57600080fd5b612c3688828901612b11565b9450506040612c4788828901612b3b565b9350506060612c5888828901612b3b565b9250506080612c6988828901612b3b565b9150509295509295909350565b600060208284031215612c8857600080fd5b6000612c9684828501612b3b565b91505092915050565b612ca8816133b8565b82525050565b612cb781613407565b82525050565b6000612cc882613311565b612cd2818561331c565b9350612ce2818560208601613428565b612ceb816135c1565b840191505092915050565b6000612d0360198361331c565b91507f5368697070696e67206167656e74206e6f7420666f756e642e000000000000006000830152602082019050919050565b6000612d4360178361331c565b91507f4d616e756661637475726572206e6f7420666f756e642e0000000000000000006000830152602082019050919050565b6000612d83601a8361331c565b91507f57617265686f757365206167656e74206e6f7420666f756e642e0000000000006000830152602082019050919050565b6000612dc360198361331c565b91507f496e636f7272656374207061796d656e7420616d6f756e742e000000000000006000830152602082019050919050565b6000612e0360148361331c565b91507f496e76616c6964206d65646963696e652049442e0000000000000000000000006000830152602082019050919050565b6000612e4360108361331c565b91507f496e636f72726563742073746167652e000000000000000000000000000000006000830152602082019050919050565b6000612e8360278361331c565b91507f4f6e6c7920746865206f776e65722063616e20706572666f726d20746869732060008301527f616374696f6e2e000000000000000000000000000000000000000000000000006020830152604082019050919050565b6000612ee960108361331c565b91507f5374616765206e6f7420666f756e642e000000000000000000000000000000006000830152602082019050919050565b6000612f2960168361331c565b91507f4469737472696275746f72206e6f7420666f756e642e000000000000000000006000830152602082019050919050565b6000612f6960178361331c565b91507f556e617574686f72697a65642077617265686f7573652e0000000000000000006000830152602082019050919050565b612fa5816133fd565b82525050565b6000602082019050612fc06000830184612c9f565b92915050565b6000608082019050612fdb6000830187612c9f565b612fe86020830186612f9c565b8181036040830152612ffa8185612cbd565b9050818103606083015261300e8184612cbd565b905095945050505050565b600060208201905061302e6000830184612cae565b92915050565b6000602082019050818103600083015261304e8184612cbd565b905092915050565b6000602082019050818103600083015261306f81612cf6565b9050919050565b6000602082019050818103600083015261308f81612d36565b9050919050565b600060208201905081810360008301526130af81612d76565b9050919050565b600060208201905081810360008301526130cf81612db6565b9050919050565b600060208201905081810360008301526130ef81612df6565b9050919050565b6000602082019050818103600083015261310f81612e36565b9050919050565b6000602082019050818103600083015261312f81612e76565b9050919050565b6000602082019050818103600083015261314f81612edc565b9050919050565b6000602082019050818103600083015261316f81612f1c565b9050919050565b6000602082019050818103600083015261318f81612f5c565b9050919050565b60006020820190506131ab6000830184612f9c565b92915050565b6000610180820190506131c7600083018f612f9c565b81810360208301526131d9818e612cbd565b905081810360408301526131ed818d612cbd565b90506131fc606083018c612f9c565b613209608083018b612f9c565b61321660a083018a612f9c565b61322360c0830189612f9c565b61323060e0830188612f9c565b61323e610100830187612f9c565b61324c610120830186612f9c565b61325a610140830185612f9c565b613268610160830184612cae565b9d9c50505050505050505050505050565b600060608201905061328e6000830186612f9c565b61329b6020830185612f9c565b6132a86040830184612cae565b949350505050565b6000604051905081810181811067ffffffffffffffff821117156132d7576132d6613592565b5b8060405250919050565b600067ffffffffffffffff8211156132fc576132fb613592565b5b601f19601f8301169050602081019050919050565b600081519050919050565b600082825260208201905092915050565b6000613338826133fd565b9150613343836133fd565b92508261335357613352613505565b5b828204905092915050565b6000613369826133fd565b9150613374836133fd565b9250817fffffffffffffffffffffffffffffffffffffffffffffffffffffffffffffffff04831182151516156133ad576133ac6134d6565b5b828202905092915050565b60006133c3826133dd565b9050919050565b60008190506133d8826135d2565b919050565b600073ffffffffffffffffffffffffffffffffffffffff82169050919050565b6000819050919050565b6000613412826133ca565b9050919050565b82818337600083830152505050565b60005b8381101561344657808201518184015260208101905061342b565b83811115613455576000848401525b50505050565b6000600282049050600182168061347357607f821691505b6020821081141561348757613486613563565b5b50919050565b6000613498826133fd565b91507fffffffffffffffffffffffffffffffffffffffffffffffffffffffffffffffff8214156134cb576134ca6134d6565b5b600182019050919050565b7f4e487b7100000000000000000000000000000000000000000000000000000000600052601160045260246000fd5b7f4e487b7100000000000000000000000000000000000000000000000000000000600052601260045260246000fd5b7f4e487b7100000000000000000000000000000000000000000000000000000000600052602160045260246000fd5b7f4e487b7100000000000000000000000000000000000000000000000000000000600052602260045260246000fd5b7f4e487b7100000000000000000000000000000000000000000000000000000000600052604160045260246000fd5b6000601f19601f8301169050919050565b600681106135e3576135e2613534565b5b50565b6135ef816133b8565b81146135fa57600080fd5b50565b613606816133fd565b811461361157600080fd5b5056fea2646970667358221220e610ac82e5f2788cf12ca8d4dc33c3c5deba5f2ac7f3204e4aac162cdec1f09864736f6c63430008000033",
  "immutableReferences": {},
  "source": "// SPDX-License-Identifier: MIT\npragma solidity >=0.8.0 <0.9.0;\n\ncontract SupplyChain {\n    address public Owner;\n\n    constructor() {\n        Owner = msg.sender;\n    }\n\n    modifier onlyByOwner() {\n        require(msg.sender == Owner, \"Only the owner can perform this action.\");\n        _;\n    }\n\n    enum STAGE {\n        Init,\n        Manufacture,\n        Shipping,\n        Distribution,\n        Warehouse,\n        Sold\n    }\n\n    uint256 public medicineCtr = 0;\n    uint256 public manCtr = 0;\n    uint256 public shipCtr = 0;\n    uint256 public disCtr = 0;\n    uint256 public warCtr = 0;\n\n    struct Medicine {\n        uint256 id;\n        string name;\n        string destinationCompanyName;\n        uint256 price;\n        uint256 quantity;\n        uint256 expirationDate;\n        uint256 timestamp;\n        uint256 MANid;\n        uint256 SHIPid;\n        uint256 DISid;\n        uint256 WARid;\n        STAGE stage;\n    }\n\n    mapping(uint256 => Medicine) public MedicineStock;\n\n    struct Manufacturer {\n        address addr;\n        uint256 id;\n        string name;\n        string place;\n    }\n\n    mapping(uint256 => Manufacturer) public MAN;\n\n    struct ShippingAgent {\n        address addr;\n        uint256 id;\n        string name;\n        string place;\n    }\n\n    mapping(uint256 => ShippingAgent) public SHIP;\n\n    struct Distributor {\n        address addr;\n        uint256 id;\n        string name;\n        string place;\n    }\n\n    mapping(uint256 => Distributor) public DIS;\n\n    struct WarehouseAgent {\n        address addr;\n        uint256 id;\n        string name;\n        string place;\n    }\n\n    mapping(uint256 => WarehouseAgent) public WAR;\n\n    event StageUpdated(uint256 indexed productId, STAGE stage);\n    event PaymentMade(address indexed from, address indexed to, uint256 amount, uint256 productId, STAGE stage);\n\n\n    function findManufacturer(address _address) internal view returns (uint256) {\n        for (uint256 i = 1; i <= manCtr; i++) {\n            if (MAN[i].addr == _address) return MAN[i].id;\n        }\n        revert(\"Manufacturer not found.\");\n    }\n\n    function findShippingAgent(address _address) internal view returns (uint256) {\n        for (uint256 i = 1; i <= shipCtr; i++) {\n            if (SHIP[i].addr == _address) return SHIP[i].id;\n        }\n        revert(\"Shipping agent not found.\");\n    }\n\n    function findDistributor(address _address) internal view returns (uint256) {\n        for (uint256 i = 1; i <= disCtr; i++) {\n            if (DIS[i].addr == _address) return DIS[i].id;\n        }\n        revert(\"Distributor not found.\");\n    }\n\n    function findWarehouseAgent(address _address) internal view returns (uint256) {\n        for (uint256 i = 1; i <= warCtr; i++) {\n            if (WAR[i].addr == _address) return WAR[i].id;\n        }\n        revert(\"Warehouse agent not found.\");\n    }\n\n    function showStage(uint256 _medicineID) public view returns (string memory) {\n        require(_medicineID > 0 && _medicineID <= medicineCtr, \"Invalid medicine ID.\");\n\n        if (MedicineStock[_medicineID].stage == STAGE.Init)\n            return \"Product Ordered\";\n        else if (MedicineStock[_medicineID].stage == STAGE.Manufacture)\n            return \"Manufacturing Stage\";\n        else if (MedicineStock[_medicineID].stage == STAGE.Shipping)\n            return \"Shipping Stage\";\n        else if (MedicineStock[_medicineID].stage == STAGE.Distribution)\n            return \"Distribution Stage\";\n        else if (MedicineStock[_medicineID].stage == STAGE.Warehouse)\n            return \"Warehouse Stage\";\n        else if (MedicineStock[_medicineID].stage == STAGE.Sold)\n            return \"Product Sold\";\n\n        revert(\"Stage not found.\");\n    }\n\n    function startManufacturing(uint256 _productId) public payable {\n    Medicine storage med = MedicineStock[_productId];\n    uint256 paymentAmount = med.price * med.quantity;\n    require(msg.value == paymentAmount, \"Incorrect payment amount.\");\n\n    med.MANid = findManufacturer(msg.sender);\n    med.stage = STAGE.Manufacture;\n    emit StageUpdated(_productId, STAGE.Manufacture);\n    \n    emit PaymentMade(msg.sender, address(this), msg.value, _productId, STAGE.Manufacture);\n}\n\n\n    function startShipping(uint256 _productId) public payable {\n    Medicine storage med = MedicineStock[_productId];\n    uint256 paymentAmount = med.price * med.quantity;\n\n    address manufacturer = MAN[med.MANid].addr;\n    require(msg.value == paymentAmount, \"Incorrect payment amount.\");\n    payable(manufacturer).transfer(paymentAmount);\n\n    med.SHIPid = findShippingAgent(msg.sender);\n    med.stage = STAGE.Shipping;\n    emit StageUpdated(_productId, STAGE.Shipping);\n\n    emit PaymentMade(msg.sender, manufacturer, msg.value, _productId, STAGE.Shipping);\n}\n\n\n    function startDistribution(uint256 _productId) public payable {\n    Medicine storage med = MedicineStock[_productId];\n    uint256 paymentAmount = med.price * med.quantity;\n\n    address shipping = SHIP[med.SHIPid].addr;\n    require(msg.value == paymentAmount, \"Incorrect payment amount.\");\n    payable(shipping).transfer(paymentAmount);\n\n    med.DISid = findDistributor(msg.sender);\n    med.stage = STAGE.Distribution;\n    emit StageUpdated(_productId, STAGE.Distribution);\n\n    emit PaymentMade(msg.sender, shipping, msg.value, _productId, STAGE.Distribution);\n}\n\n\n    function storeInWarehouse(uint256 _productId) public payable {\n    Medicine storage med = MedicineStock[_productId];\n    uint256 paymentAmount = med.price * med.quantity;\n\n    address distributor = DIS[med.DISid].addr;\n    require(msg.value == paymentAmount, \"Incorrect payment amount.\");\n    payable(distributor).transfer(paymentAmount);\n\n    med.WARid = findWarehouseAgent(msg.sender);\n    med.stage = STAGE.Warehouse;\n    emit StageUpdated(_productId, STAGE.Warehouse);\n\n    emit PaymentMade(msg.sender, distributor, msg.value, _productId, STAGE.Warehouse);\n}\n\n\n    function sell(uint256 _medicineID) public payable {\n        require(_medicineID > 0 && _medicineID <= medicineCtr, \"Invalid medicine ID.\");\n        uint256 _id = findWarehouseAgent(msg.sender);\n        require(_id > 0, \"Warehouse agent not found.\");\n        require(_id == MedicineStock[_medicineID].WARid, \"Unauthorized warehouse.\");\n        require(MedicineStock[_medicineID].stage == STAGE.Warehouse, \"Incorrect stage.\");\n\n        Medicine storage med = MedicineStock[_medicineID];\n        uint256 totalPrice = med.price * med.quantity;\n        require(msg.value == totalPrice, \"Incorrect payment amount.\");\n\n        // Pay the previous entities\n        address manufacturer = MAN[med.MANid].addr;\n        address shipping = SHIP[med.SHIPid].addr;\n        address distributor = DIS[med.DISid].addr;\n\n        uint256 paymentAmount = totalPrice / 3;\n\n        // Payment from Warehouse to Distributor\n        payable(distributor).transfer(paymentAmount);\n        // Payment from Distributor to Shipping\n        payable(shipping).transfer(paymentAmount);\n        // Payment from Shipping to Manufacturer\n        payable(manufacturer).transfer(paymentAmount);\n\n        // Mark the medicine as sold\n        med.stage = STAGE.Sold;\n        emit StageUpdated(_medicineID, STAGE.Sold);\n    }\n\n    function addMedicine(\n        string memory _name,\n        string memory _destinationCompanyName,\n        uint256 _price,\n        uint256 _quantity,\n        uint256 _expirationDate\n    ) public onlyByOwner {\n        medicineCtr++;\n        MedicineStock[medicineCtr] = Medicine(\n            medicineCtr,\n            _name,\n            _destinationCompanyName,\n            _price,\n            _quantity,\n            _expirationDate,\n            block.timestamp,\n            0, // Initialize manufacturer ID\n            0, // Initialize shipping ID\n            0, // Initialize distributor ID\n            0, // Initialize warehouse ID\n            STAGE.Init\n        );\n    }\n\n    function addManufacturer(\n        address _addr,\n        string memory _name,\n        string memory _place\n    ) public onlyByOwner {\n        manCtr++;\n        MAN[manCtr] = Manufacturer(_addr, manCtr, _name, _place);\n    }\n\n    function addShippingAgent(\n        address _addr,\n        string memory _name,\n        string memory _place\n    ) public onlyByOwner {\n        shipCtr++;\n        SHIP[shipCtr] = ShippingAgent(_addr, shipCtr, _name, _place);\n    }\n\n    function addDistributor(\n        address _addr,\n        string memory _name,\n        string memory _place\n    ) public onlyByOwner {\n        disCtr++;\n        DIS[disCtr] = Distributor(_addr, disCtr, _name, _place);\n    }\n\n    function addWarehouseAgent(\n        address _addr,\n        string memory _name,\n        string memory _place\n    ) public onlyByOwner {\n        warCtr++;\n        WAR[warCtr] = WarehouseAgent(_addr, warCtr, _name, _place);\n    }\n}\n",
  "sourcePath": "C:\\Users\\DELL\\projects\\Shipment-Tracking-System-Using-Blockchain-main\\contracts\\SupplyChain.sol",
  "compiler": {
    "name": "solc",
    "version": "0.8.0+commit.c7dfd78e.Emscripten.clang"
  },
  "schemaVersion": "3.4.16",
  "updatedAt": "2024-08-09T08:25:49.701Z",
  "devdoc": {
    "kind": "dev",
    "methods": {},
    "version": 1
  },
  "userdoc": {
    "kind": "user",
    "methods": {},
    "version": 1
  }
}